:020000040800F2
:100000000005002001010008D11B0008091B0008A1
:10001000CD1B0008150B0008452900080000000052
:10002000000000000000000000000000352400086F
:10003000190B000800000000C12000083724000848
:100040001B0100081B0100081B0100081B01000820
:100050001B0100081B0100081B0100081B01000810
:100060001B0100081B0100081B0100081B01000800
:100070001B0100081B0100081B0100081B010008F0
:100080001B0100081B0100081B0100081B010008E0
:100090001B0100081B0100081B0100081B010008D0
:1000A0001B0100081B0100081B0100081B010008C0
:1000B0001B0100081B0100081B0100081B010008B0
:1000C0001B0100081B0100081B0100081B010008A0
:1000D0001B010008352900081B0100081B0100084E
:1000E0001B0100081B0100081B010008DFF80CD0F1
:1000F00000F05AFB004800477D330008000500204F
:100100000648804706480047FEE7FEE7FEE7FEE7B1
:10011000FEE7FEE7FEE7FEE7FEE7FEE7CD24000888
:10012000ED000008202A04DB203A21FA02F0002129
:10013000704721FA02F3D040C2F1200291400843F7
:10014000194670472DE9FE4F804681EA0300C00F33
:100150000C46009021F0004123F00045B8EB02006E
:10016000A94105D24046214690461C460B46024610
:1001700023F00040104347D0270DC7F30A00C3F314
:100180000A510290401A019040286BDAC3F3130021
:1001900040F4801B0098924620B10023D2EB030A62
:1001A00063EB0B0B01985946C0F14002504600F03A
:1001B00015FA06460D4650465946019A00F01DFABA
:1001C00010EB08006141002487EA115284EAE773CA
:1001D0001A4340D0009A62B3019A012A4FEA0752AB
:1001E00015DC001B61EB02014FF0004202EA0752EE
:1001F000CDE90042001C41F5801132462B4600F04B
:1002000054FA03B0BDE8F08F40462146F9E7001BE1
:1002100061EB0201001C41F5801300185B412018BE
:10022000A2F5001747EB030140EAD570B6196D41FE
:1002300011E06D084FEA360645EAC0754FEA0752ED
:10024000001B61EB0201001C41F5801149084FEAD7
:1002500030000019514132462B4603B0BDE8F04F43
:1002600000F014BA0098012240000023D0EB0202F3
:1002700063EBE073009821464FEAE074B8EB0000AE
:1002800061EB0401E9E783F000435BE781F00041A3
:1002900058E72DE9FE4F81EA030404F0004421F001
:1002A000004100944FF0000B23F0004350EA01049A
:1002B0005ED052EA03045BD0C3F30A54C1F30A557B
:1002C0002C44A4F2F3340194A0FB0254C1F31301B3
:1002D00041F48011C3F3130343F4801301FB024480
:1002E00000FB034E840A970A44EA815447EA835785
:1002F000A4FB076802958D0A05FB07854FEA932C3E
:1003000004FB0C542705029D4FEA065847EA1637AE
:10031000B5EB08056EEB070C870E920E47EA8117C6
:1003200042EA8312A7FB0201B6EB0B0164EB000467
:100330002B0D43EA0C335E1844EB1C50DA46514651
:10034000E7FB0201C5F313044FEA0B3343EA1453EE
:100350004FEA0432019C43EA0603A4F10C04029420
:10036000009CCDE900B400F0A0F903B0BDE8F08F27
:1003700000200146F9E72DE9F04D81EA030404F07D
:10038000004B21F0004514464FF0000A23F00041D5
:1003900050EA050220D054EA01021DD0C5F30A57E5
:1003A0000246C5F31303C1F31300C1F30A5640F428
:1003B000801543F48013A7EB0608101BD64608F2FD
:1003C000FD3873EB050002D308F1010801E0921833
:1003D0005B41B8F1000F03DA00200146BDE8F08D63
:1003E00000204FF48011064684460EE0171B73EB85
:1003F000050705D3121B63EB050306434CEA010C0A
:1004000049084FEA300092185B4150EA0107EDD1EC
:1004100052EA030012D082EA040083EA050108438D
:1004200005D0101BAB4106D20122002306E00022BA
:100430004FF0004302E06FF0010253101AEB060088
:100440004CEB085110EB0A0041EB0B01BDE8F04DFD
:1004500000F01CB9C10F80EAE0700844CA07962377
:10046000002100F0E5B80EB540F2334102910021C1
:10047000CDE900110A460B4600F017F903B000BDA4
:1004800070B5C1F30A5201F000450024C1F3130115
:1004900040F2FF3341F480119A4201DA002070BD2E
:1004A00040F233439A42A2F2334203DC5242FFF756
:1004B00039FE00E090402C43F1D0404270BDC1F3C2
:1004C0000A5210B5C1F3130140F2FF3341F4801119
:1004D0009A4201DA002010BD40F233439A42A2F260
:1004E000334203DC5242FFF71DFE10BD904010BDA9
:1004F00000F0004230F000400AD0C10D01F56071FB
:10050000C0F3160042EA0151C20840071143704788
:1005100000200146704701F0004330B421F0004153
:1005200050EA010206D00A0DA2F56072C1F3130170
:10053000002A02DC30BC00207047440F44EAC104AA
:10054000C100E01830BC00EBC25000F068B830B514
:100550000B46014600202022012409E021FA02F581
:100560009D4205D303FA02F5491B04FA02F528441B
:10057000151EA2F10102F1DC30BD2DE9F05F054648
:10058000002092469B4688460646814640241BE052
:100590002846414647462246FFF7C4FD53465A4681
:1005A000C01A914110D311461846224600F016F8A1
:1005B0002D1A67EB01084F4622460120002100F06A
:1005C0000DF817EB00094E41201EA4F10104DFDCF9
:1005D000484631462A464346BDE8F09F202A04DBC0
:1005E000203A00FA02F1002070479140C2F1200346
:1005F00020FA03F3194390407047202A06DBCB17FB
:10060000203A41FA02F043EAE07306E041FA02F3CD
:10061000D040C2F12002914008431946704700299A
:10062000A8BF7047401C490008BF20F00100704778
:1006300010B4B0FA80FC00FA0CF050EA010404BFD8
:1006400010BC704749B1CCF1200421FA04F411FA2E
:100650000CF118BF012121430843A3EB0C01CB1D72
:100660004FEA00614FEA102042BF002010BC7047E3
:1006700000EBC35010440029A4BF10BC7047401CBD
:10068000490008BF20F0010010BC704710B5141ECF
:1006900073F1000408DA401C41F1000192185B413B
:1006A0001A4301D120F0010010BD2DE9F04D924612
:1006B0009B4611B1B1FA81F202E0B0FA80F2203229
:1006C0009046FFF78BFF04460F4640EA0A0041EAD6
:1006D0000B0153465A46084313D0114653EA010012
:1006E00019D0C8F140025046FFF71CFD05460E46E2
:1006F000504659464246FFF771FF084305D0012096
:1007000004E020463946BDE8F08D0020054346EA66
:10071000E0762C4337430A986305E40AA0EB08000F
:100720000022FD0A44EA47540A3002D5002001465F
:10073000E9E7010510196941DDE90845001969413A
:10074000BDE8F04DA2E7C1F30A52C1F3130140F234
:10075000FF3341F480119A4202DA002001467047CB
:1007600040F233439A42A2F2334202DC5242FFF794
:10077000D9BCFFF733BF000030B5041E71F100048F
:1007800004DB4FF00044404264EB0101141E73F19E
:10079000000405DB1C464FF00043524263EB0403A8
:1007A000994208BF904230BD064C074D06E0E06814
:1007B00040F0010394E8070098471034AC42F6D3A8
:1007C000FFF798FC94390008B439000810B50022EE
:1007D0004FF48051134800F08FFB1248001D006851
:1007E00020F470000F49091D08600846006840F4B5
:1007F00040100860002249140A4800F07DFB0220E6
:1008000002F013FD01221103064800F075FB0220DF
:1008100002F00BFD00224FF48051024800F06CFB07
:1008200010BD0000000C014000B585B000BF1348AA
:10083000806940F00800114988610846806900F02D
:100840000800009000BF00BF019840F440500190A4
:100850000120029003900320049001A9084800F0B1
:10086000B5F901221103064800F046FB01225103AD
:10087000034800F041FB05B000BD0000001002403D
:10088000000C014010B500224FF48051134800F0D5
:1008900033FB1248001D006820F470000F49091D49
:1008A00008600846006840F44010086001224914BE
:1008B0000A4800F021FB022002F0B7FC01221103DC
:1008C000064800F019FB022002F0AFFC00224FF4B2
:1008D0008051024800F010FB10BD0000000C0140E8
:1008E00070B5054600241B48006820F470001949C3
:1008F00008600846006840F40000086000261FE019
:1009000000224FF480511348001F00F0F5FA022036
:1009100002F08BFC012211030E48001F00F0ECFADC
:100920006006040E4FF400510A48001F00F0DCFA84
:1009300008B1601CC4B2012002F077FC701CC6B282
:10094000082EDDDB15B9FFF79DFF01E0FFF73EFF45
:10095000204670BD040C014070B504461F48006875
:1009600020F470001D4908600846006840F44010FB
:100970000860002289141948001F00F0BDFA002504
:1009800029E0E00930B1012251031448001F00F0B2
:10099000B3FA06E000224FF400511048001F00F0A7
:1009A000ABFA6006040E022002F03FFC01221103A4
:1009B0000A48001F00F0A0FA022002F036FC0022D4
:1009C0004FF480510548001F00F096FA022002F013
:1009D0002CFC681CC5B2082DD3DB70BD040C014093
:1009E00010B51648006820F47000144908600846E5
:1009F000006840F440100860012289140F48001F6D
:100A000000F07AFA012251030C48001F00F074FA3A
:100A1000042002F00AFC00224FF400510748001F96
:100A200000F06AFA042002F000FC00224FF480512A
:100A30000248001F00F060FA10BD0000040C0140E5
:100A400010B51548006820F4700013490860084686
:100A5000006840F440100860002289140E48001F0E
:100A600000F04AFA00224FF400510B48001F00F03A
:100A700043FA042002F0D9FB012211030648001FAB
:100A800000F03AFA012251030348001F00F034FA43
:100A9000042002F0CAFB10BD040C014010B5002474
:100AA0001B48006820F47000194908600846006877
:100AB00040F400000860012249141548001F00F0AE
:100AC0001BFA012002F0B1FB012211031048001FA4
:100AD00000F012FA012002F0A8FB07E0601CC4B28B
:100AE000FA2C03DDFFF7ACFF012010BD4FF40051DD
:100AF0000748001F00F0F8F90028EFD100224FF45A
:100B000080510348001F00F0F7F90020EDE70000D6
:100B1000040C014000BFFEE77047000070B50446BA
:100B2000002594F82100022803D00420A0630125A9
:100B300048E02068006820F00E0021680860206806
:100B4000006820F00100216808601F492068884281
:100B500001D1012026E01C4914312068884201D1CE
:100B600010201FE0184928312068884201D18015E3
:100B700018E015493C312068884201D1801411E009
:100B8000114950312068884202D14FF4803009E089
:100B90000D4964312068884202D14FF4801001E091
:100BA0004FF08070084908394860012084F821001E
:100BB00000BF002084F8200000BF606B10B1204609
:100BC000616B8847284670BD080002402DE9F84750
:100BD00003460024002000258446002700226EE101
:100BE0004FF0010808FA02F4D1F8008008EA040086
:100BF000A0427DD1DFF8D0A2D1F80480A8EB0A0989
:100C0000D0453AD014DCB8F1030F50D009DCB8F16C
:100C1000000F31D0B8F1010F1CD0B8F1020F49D14B
:100C200020E0B8F1110F18D0B8F1120F42D11EE038
:100C3000B9F5881F25D006DCB9F5803F20D0B9F57D
:100C4000801F37D11AE0B9F5001F18D0B9F5041F7D
:100C500030D117E0D1F80CC02DE0D1F80C8008F1AC
:100C6000040C28E0D1F80C8008F1080C23E0D1F83E
:100C70000C8008F10C0C1EE000BF00BF00BF00BFDD
:100C800000BF00BFD1F80880B8F1000F02D14FF0CB
:100C9000040C0BE0D1F80880B8F1010F03D14FF03C
:100CA000080C1C6102E04FF0080C5C6103E04FF09F
:100CB000000C00E000BF00BFFF2801D8984601E00B
:100CC00003F104084646FF2802D84FEA820803E0F1
:100CD000A2F108084FEA88084746D6F800804FF08E
:100CE0000F0909FA07F928EA09080CFA07F900E0E0
:100CF00088E048EA0908C6F80080D1F8048008F0C6
:100D00008058B8F1805F7DD100BFDFF8C081D8F88E
:100D1000188048F00108DFF8B491C9F81880C84677
:100D2000D8F8188008F00108CDF8008000BF00BF97
:100D30004FEAB9384FEA920958F829504FEA8278B9
:100D40004FEA18794FF00F0808FA09F825EA080564
:100D5000DFF87C81434502D14FF0000816E0DFF850
:100D60007481434502D14FF001080FE0DFF868813C
:100D7000434502D14FF0020808E0DFF860814345A7
:100D800002D14FF0030801E04FF004084FEA8279E6
:100D90004FEA197908FA09F848EA0505DFF84081B1
:100DA0004FEA920948F82950D1F8048008F48038B5
:100DB000B8F5803F0AD1DFF82C81D8F8008048EAE6
:100DC0000008DFF82091C9F8008009E0DFF81481FD
:100DD000D8F8008028EA0008DFF80891C9F80080F8
:100DE000D1F8048008F40038B8F5003F10D1DFF8DE
:100DF000F48008F10408D8F8008048EA0008DFF819
:100E0000E49000E05AE009F10409C9F800800DE01F
:100E1000DFF8D08008F10408D8F8008028EA00083C
:100E2000DFF8C09009F10409C9F80080D1F8048006
:100E300008F48018B8F5801F0ED1DFF8A88008F1FB
:100E40000808D8F8008048EA0008DFF8989009F10F
:100E50000809C9F800800DE0DFF8888008F108086B
:100E6000D8F8008028EA0008DFF8789009F108092E
:100E7000C9F80080D1F8048008F40018B8F5001F04
:100E80000ED1DFF8608008F10C08D8F8008048EA3D
:100E90000008DFF8509009F10C09C9F800800DE056
:100EA000DFF8408008F10C08D8F8008028EA000834
:100EB000DFF8309009F10C09C9F80080521C102AA3
:100EC000FFF48EAEBDE8F88700001110001002405C
:100ED00000080140000C01400010014000140140D6
:100EE0000800014000040140024693680B400BB12A
:100EF000012000E0002070470AB1016101E00B040D
:100F00000361704701480068704700002800002016
:100F1000034800680349097808440149086070479C
:100F2000280000203000002010B50848006840F07C
:100F3000100006490860032000F0D0F8002000F0FF
:100F400007F800F02BF8002010BD00000020024040
:100F500070B504460E4800784FF47A71B1FBF0F09A
:100F60000C490968B1FBF0F5284600F05FFC08B1B8
:100F7000012070BD102C07D200222146501E00F027
:100F80006EF80548046001E00120F2E70020F0E778
:100F900030000020340000202C00002008B500BFE5
:100FA0002648806940F0010024498861084680692C
:100FB00000F00100009000BF00BF00BF0846C069FC
:100FC00040F08050C8610846C06900F08050009031
:100FD00000BF00BF032000F081F8002211466FF02F
:100FE0000B0000F03CF8002211466FF00A0000F000
:100FF00036F8002211466FF0090000F030F80022A8
:101000001146501F00F02BF800221146101F00F06F
:1010100026F800221146901E00F021F80022114609
:10102000501E00F01CF800BF0549486820F0E06041
:1010300040F08060486000BF08BD00000010024022
:101040000000014000BF00F01F0201219140420951
:10105000920002F1E022C2F8001100BF70472DE9B2
:10106000F05F80460D461646002700F0B3FD0746A8
:1010700039462A46334601F00700C0F1070ABAF1A3
:10108000040F02D94FF0040A01E0C0F1070AD1466B
:1010900000F1040ABAF1070F02D24FF0000A01E092
:1010A000A0F1030AD4464FF0010A0AFA09FAAAF19C
:1010B000010A0AEA020A0AFA0CFA4FF0010B0BFACB
:1010C0000CFBABF1010B0BEA030B4AEA0B042146C4
:1010D000404600F087FDBDE8F09F000000BF00F033
:1010E0000702064B19684FF6FF031940044B0B43E8
:1010F00043EA0221014B196000BF70470CED00E08C
:101100000000FA0570B504460D46002662480068E6
:1011100000F00700A8420ED25F48006820F00700E8
:1011200028435D4908600846006800F00700A842AF
:1011300001D0012070BD207800F00200022807D104
:101140005648406820F0F000A168084353494860C1
:10115000207800F0010000285DD06068012806D1E9
:101160004E48006800F4003090B90120E2E7606862
:10117000022806D14948006800F0007040B90120FB
:10118000D8E74648006800F0020008B90120D1E71E
:101190004248406820F00300616808433F494860C6
:1011A000FFF7B0FE06466068012810D108E0FFF79F
:1011B000A9FE801B41F28831884201D90320B9E79A
:1011C0003648406800F00C000428F0D123E0606845
:1011D000022810D108E0FFF795FE801B41F288310C
:1011E000884201D90320A5E72C48406800F00C0094
:1011F0000828F0D10FE008E0FFF784FE801B41F2E1
:101200008831884201D9032094E72448406800F0DF
:101210000C000028F0D12048006800F00700A84228
:101220000ED91D48006820F0070028431A490860BD
:101230000846006800F00700A84201D0012079E7C5
:10124000207800F00400042807D11448406820F4F6
:10125000E060E168084311494860207800F0080028
:10126000082808D10D48406820F46050216940EA00
:10127000C1000A49486000F03DF808494968C1F3D7
:101280000311074A515CC840064908600020FFF777
:101290005FFE00204EE700000020024000100240E8
:1012A0007C390008340000200148006870470000C5
:1012B0003400002000B5FFF7F7FF04494968C1F387
:1012C0000221034A515CC84000BD000000100240EA
:1012D0008C39000800B5FFF7E7FF04494968C1F3FE
:1012E000C221034A515CC84000BD0000001002400A
:1012F0008C390008F0B585B00FF26C0C9CE8E0105A
:1013000001A8A0E8E0101CA52D680095002100228E
:10131000002300240020194D696801F00C05F5B187
:10132000042D02D0082D19D101E0154819E001ADB6
:10133000C1F38346AC5D01F4803555B10F4D6D6846
:10134000C5F340451DF805200D4D6543B5FBF2F38F
:1013500002E00C4D04FB05F3184602E000BF08480C
:1013600000BF00BF05B0F0BD020304050607080971
:101370000A0B0C0D0E0F10100102000000100240AD
:1013800000127A0000093D00F8B5044600252078D7
:1013900000F00100002878D0F848406800F00C0008
:1013A00004280CD0F548406800F00C00082811D142
:1013B000F248406800F48030B0F5803F0AD1EF4831
:1013C000006800F4003000285FD0606800285CD11D
:1013D0000120F8BD00BF6068B0F5803F06D1E74846
:1013E000006840F48030E549086028E0606858B93A
:1013F000E248006820F48030E04908600846006850
:1014000020F4802008601AE06068B0F5A02F0BD1AE
:10141000DA48006840F48020D8490860084600682F
:1014200040F4803008600AE0D448006820F480303E
:10143000D24908600846006820F48020086000BF98
:10144000606888B1FFF75EFD054606E0FFF75AFDCC
:10145000401B642801D90320BBE7C848006800F49A
:1014600000300028F2D010E0FFF74CFD054606E002
:10147000FFF748FD401B642801D90320A9E7BF48B6
:10148000006800F400300028F2D1207800F002005B
:10149000022857D1B948406800F00C0050B1B74855
:1014A000406800F00C00082818D1B448406800F4E7
:1014B000803098B9B148006800F0020020B120697E
:1014C000012801D0012084E7AC48006820F0F80032
:1014D000616940EAC100A949086033E02069E8B1C8
:1014E0000120A7490860FFF70DFD054606E0FFF75C
:1014F00009FD401B022801D903206AE79F480068C4
:1015000000F002000028F2D09C48006820F0F800AB
:10151000616940EAC1009949086013E000209849D8
:101520000860FFF7EFFC054606E0FFF7EBFC401B09
:10153000022801D903204CE79048006800F002001F
:101540000028F2D1207800F0080008282DD1A069E9
:10155000B8B101208B490860FFF7D4FC054606E0CE
:10156000FFF7D0FC401B022801D9032031E7834854
:10157000406A00F002000028F2D0012000F0A2FD35
:1015800013E000207F490860FFF7BCFC054606E039
:10159000FFF7B8FC401B022801D9032019E7774860
:1015A000406A00F002000028F2D1207800F0040028
:1015B000042873D100267148C06900F0805070B9CA
:1015C00000BF6E48C06940F080506C49C861084651
:1015D000C06900F08050009000BF00BF01266A483B
:1015E000006800F48070B0B96748006840F480700B
:1015F00065490860FFF786FC054606E0FFF782FCB8
:10160000401B642801D90320E3E65F48006800F42A
:1016100080700028F2D000BFE068012806D157484A
:10162000006A40F001005549086227E0E06858B9B7
:101630005248006A20F00100504908620846006ADA
:1016400020F00400086219E0E06805280BD14B483F
:10165000006A40F00400494908620846006A40F008
:10166000010008620AE04548006A20F00100434991
:1016700008620846006A20F00400086200BFE068C3
:10168000A0B1FFF73FFC054609E0FFF73BFC401B1C
:1016900041F28831884202D903209AE622E0374895
:1016A000006A00F002000028EFD012E0FFF72AFCE9
:1016B000054608E0FFF726FC401B41F288318842CE
:1016C00001D9032085E62D48006A00F002000028B9
:1016D000F0D1012E05D12948C06920F0805027495A
:1016E000C86100BFE069C8B32448406800F00C003E
:1016F000082860D0E069022848D100202049086607
:10170000FFF700FC054606E0FFF7FCFB401B022844
:1017100001D903205DE61948006800F00070002838
:10172000F2D1206AB0F5803F07D11448406820F418
:101730000030A168084311494860D4E90801084312
:101740000E49496821F4741108430C49486001208E
:101750000B490866FFF7D6FB054607E02DE0FFF7CB
:10176000D1FB401B022801D9032032E60348006860
:1017700000F000700028F2D01FE0000000100240CE
:1017800000004242800442420070004000200C49A8
:101790000866FFF7B7FB054606E0FFF7B3FB401B03
:1017A000022801D9032014E60648006800F0007002
:1017B0000028F2D101E001200BE6002009E600003C
:1017C0000000424200100240042808D14FF0E021FE
:1017D000096941F004014FF0E022116107E04FF088
:1017E000E021096921F004014FF0E0221161704706
:1017F0000C480068401C0B49086000BF00BF00BFD8
:10180000EFF31081084600BF72B600BF06490968B1
:1018100041F00801044A116000BF80F3108800BF46
:1018200000BF7047700000207400002070B50446AF
:101830002546681EB0F1807F01D301200FE0681EAD
:101840004FF0E02148610F214FF0FF3000F0CAF95E
:1018500000204FF0E021886107200861002070BD62
:1018600010B5FFF7C5FF10BD704700002DE9F04728
:101870000446206805682068C668206847694FF0FC
:101880000008C14605F00F08B8F1000F0AD105F0B5
:10189000200038B106F0200020B1204600F0DEFE26
:1018A000BDE8F087B8F1000F6DD007F0010018B95E
:1018B00006F49070002866D005F0010030B106F4FF
:1018C000807018B1E06B40F00100E06305F00400A7
:1018D00030B107F0010018B1E06B40F00200E063A6
:1018E00005F0020030B107F0010018B1E06B40F0E4
:1018F0000400E06305F0080030B107F0010018B102
:10190000E06B40F00800E063E06B68B305F0200096
:1019100028B106F0200010B1204600F09FFE20689C
:101920004069C0F38019E06B00F0080010B9B9F10C
:10193000000F22D0204600F071FE2068406900F0C0
:101940004000B0B12068406920F040002168486143
:10195000606B50B11748616B4863606BFFF7DEF84E
:1019600010B1606B416B88470CE02046FFF77CFFAD
:1019700008E02046FFF778FF04E02046FFF774FFF9
:101980000020E0638CE705F0800030B106F08000B5
:1019900018B1204600F09AFF82E705F0400030B110
:1019A00006F0400018B1204600F048FE78E700BF7E
:1019B00076E700000926000810B504460CB901209E
:1019C00010BDA06900B100E000BF94F8390028B94B
:1019D000002084F83800204600F028F8242084F8FD
:1019E00039002068C06820F400502168C860204693
:1019F00000F088FE2068006920F4904021680861AA
:101A00002068406920F02A00216848612068C06889
:101A100040F400502168C8600020E063202084F872
:101A2000390084F83A000020CAE7000010B586B0FB
:101A3000044618492068884229D100BF16488069A9
:101A400040F48040144988610846806900F4804071
:101A5000019000BF00BF48150290022003900320B0
:101A6000059002A90D48FFF7B1F84FF4806002908D
:101A700000200390049002A90848FFF7A7F800226D
:101A800011462520FFF7EBFA2520FFF7DBFA06B019
:101A900010BD000000380140001002400008014065
:101AA000704710B5034693F83900202823D101B1BF
:101AB0000AB9012010BD00BF93F83800012801D1F8
:101AC0000220F7E7012083F8380000BF19629A84EA
:101AD000DA840020D863212083F8390000BF002079
:101AE00083F8380000BF1868C06840F080001C68A8
:101AF000E0600020DEE70220DCE700000121014A6F
:101B0000117070470000002000BFFEE700B585B0EF
:101B100000BF1848806940F00400164988610846F3
:101B2000806900F00400009000BF00BF00BF0846BD
:101B3000806940F0080088610846806900F008006C
:101B4000009000BF00BF4FF40040019000200290C1
:101B50000120039001A90848FFF738F808200190F8
:101B6000002002900120039001A90448FFF72EF8FD
:101B700005B000BD0010024000080140000C01400B
:101B800010B50C480C4908604FF4E1304860002162
:101B900009488160C16001610C21416100218161BE
:101BA000C161FFF709FF18B1422104A000F0CCFE8B
:101BB00010BD000000380140C00000202E2E2F5321
:101BC00072632F75736172742E63000000BFFEE7AD
:101BD0007047000002480068C0F302207047000010
:101BE0000CED00E010B5002807DA0A07140E054ACC
:101BF00000F00F031B1FD45403E00A07130E024A20
:101C0000135410BD18ED00E000E400E010B5002210
:101C100001211248FFF770F91048006820F0F00029
:101C20000E4908600846006840F030000860002255
:101C300002210A48FFF760F9022001F027FD012286
:101C400011460648FFF758F9022001F01FFD002257
:101C500001210248FFF750F910BD000000080140C3
:101C600000B585B000BF1348806940F004001149F9
:101C700088610846806900F00400009000BF00BF42
:101C8000019840F00300019001200290039003208E
:101C9000049001A90848FEF799FF01221146064861
:101CA000FFF72AF9012202210348FFF725F905B0C1
:101CB00000BD0000001002400008014010B50022E5
:101CC00001211248FFF718F91048006820F0F000D1
:101CD0000E4908600846006840F0300008600122A4
:101CE00002210A48FFF708F9022001F0CFFC012287
:101CF00011460648FFF700F9022001F0C7FC002258
:101D000001210248FFF7F8F810BD0000000801406B
:101D100070B5054600241948006820F0F000174906
:101D200008600846006840F08000086000261AE05D
:101D3000002201211148FFF7DFF8022001F0A6FC84
:101D4000012211460D48FFF7D7F86006040E022164
:101D50000A48FFF7C9F808B1601CC4B2012001F0BD
:101D600095FC701CC6B2082EE2DB15B9FFF7A6FF82
:101D700001E0FFF74BFF204670BD00000008014066
:101D800070B504461C48006820F0F0001A4908604D
:101D90000846006840F03000086000220121164823
:101DA000FFF7AAF8002523E0E00928B1012202216B
:101DB0001148FFF7A1F804E0002202210E48FFF7C6
:101DC0009BF86006040E022001F060FC012211461F
:101DD0000948FFF791F8022001F058FC0022012188
:101DE0000548FFF789F8022001F050FC681CC5B2D5
:101DF000082DD9DB70BD00000008014010B5134864
:101E0000006820F0F000114908600846006840F0C2
:101E100030000860012211460C48FFF76DF80122DE
:101E200002210A48FFF768F8042001F02FFC002285
:101E300002210648FFF760F8042001F027FC002289
:101E400001210248FFF758F810BD000000080140CA
:101E500010B51348006820F0F000114908600846EA
:101E6000006840F030000860002201210C48FFF7B4
:101E700043F8002202210A48FFF73EF8042001F04F
:101E800005FC012211460648FFF736F8012202211F
:101E90000348FFF731F8042001F0F8FB10BD000003
:101EA0000008014010B500241848006820F0F00038
:101EB000164908600846006840F08000086001226A
:101EC00002211248FFF718F8012001F0DFFB012280
:101ED00011460E48FFF710F8012001F0D7FB07E08C
:101EE000601CC4B2FA2C03DDFFF7B2FF012010BD65
:101EF00002210648FEF7F8FF0028F1D10022012157
:101F00000248FEF7F9FF0020F1E700000008014059
:101F100070B504460025FFF771FFA220FFF730FFE0
:101F2000FFF7C0FFE0B2FFF72BFFFFF7BBFFFFF7A4
:101F300065FFA320FFF724FFFFF7B4FF0020FFF7A2
:101F4000E7FE0546FFF784FF284670BD70B50646DC
:101F50000820FFF7DDFF254948700720FFF7D8FF6D
:101F600000F01F00214988700520FFF7D1FF00F025
:101F70003F001E49C8700420FFF7CAFF00F03F0071
:101F80001A4908710320FFF7C3FF00F07F001749CB
:101F900048710220FFF7BCFF00F07F0013498871F1
:101FA0000620FFF7B5FF00F00F001049C8710024AC
:101FB00019E00E49085DC11700EB11710D110B49B5
:101FC000085DC11700EB11710911A0EB0111084A5E
:101FD00011551046005D05EB850100EB41001146EF
:101FE0000855601CC4B2082CE3DB70BD440000201F
:101FF0002000002070B505460C46FFF7FFFEA2202A
:10200000FFF7BEFEFFF74EFF2846FFF7B9FEFFF7CA
:1020100049FF2046FFF7B4FEFFF744FFFFF718FF24
:102020004FF4FA6001F032FB70BD000070B500247F
:1020300014E02148005D0A2190FBF1F0C5B21E4872
:10204000005D90FBF1F201FB12001C4908550846A7
:10205000005D00EB05100855601CC4B2082CE8DBDD
:1020600020210020FFF7C6FF144841780820FFF721
:10207000C1FF124881780720FFF7BCFF0F48C178E5
:102080000520FFF7B7FF0D4801790420FFF7B2FFE5
:102090000A4841790320FFF7ADFF08488179022003
:1020A000FFF7A8FF0548C1790620FFF7A3FF00212D
:1020B0000846FFF79FFF70BD3C0000204400002051
:1020C0007047000008B508490968C9084FF47A72DA
:1020D000B1FBF2F14143009100BF00BF00994A1EDD
:1020E00000920029F9D108BD3400002010B500226B
:1020F0004FF480511348FEF7FFFE1248001D0068A0
:1021000020F470400F49091D08600846006840F43B
:10211000405008600022C9140A48FEF7EDFE022074
:1021200001F09AF8012211030648FEF7E5FE0220AD
:1021300001F092F800224FF480510248FEF7DCFED5
:1021400010BD00000008014000B585B000BF134875
:10215000806940F00400114988610846806900F0F8
:102160000400009000BF00BF019840F4C0500190EF
:102170000120029003900320049001A90848FEF773
:1021800025FD012211030648FEF7B6FE0122D10209
:102190000348FEF7B1FE05B000BD0000001002408C
:1021A0000008014010B500224FF480511348FEF79B
:1021B000A3FE1248001D006820F470400F49091D5D
:1021C00008600846006840F4405008600122C914C5
:1021D0000A48FEF791FE022001F03EF801221103A9
:1021E0000648FEF789FE022001F036F800224FF47F
:1021F00080510248FEF780FE10BD0000000801403B
:1022000070B5054600241B48006820F47040194949
:1022100008600846006840F40040086000261FE09F
:1022200000224FF480511348001FFEF765FE022084
:1022300001F012F8012211030E48001FFEF75CFEA8
:102240006006040E4FF400610A48001FFEF74CFEC2
:1022500008B1601CC4B2012000F0FEFF701CC6B2C1
:10226000082EDDDB15B9FFF79DFF01E0FFF73EFF0C
:10227000204670BD0408014070B504461F48006840
:1022800020F470401D4908600846006840F4405042
:102290000860002289141948001FFEF72DFE002552
:1022A00029E0E00930B10122D1021448001FFEF7F5
:1022B00023FE06E000224FF400611048001FFEF7E5
:1022C0001BFE6006040E022000F0C6FF012211036F
:1022D0000A48001FFEF710FE022000F0BDFF00229A
:1022E0004FF480510548001FFEF706FE022000F063
:1022F000B3FF681CC5B2082DD3DB70BD04080140D4
:1023000010B51648006820F470401449086008466B
:10231000006840F440500860012289140F48001FF3
:10232000FEF7EAFD0122D1020C48001FFEF7E4FD92
:10233000042000F091FF00224FF400610748001FC5
:10234000FEF7DAFD042000F087FF00224FF48051F1
:102350000248001FFEF7D0FD10BD00000408014038
:1023600010B51548006820F470401349086008460D
:10237000006840F440500860002289140E48001F95
:10238000FEF7BAFD00224FF400610B48001FFEF774
:10239000B3FD042000F060FF012211030648001F76
:1023A000FEF7AAFD0122D1020348001FFEF7A4FD9B
:1023B000042000F051FF10BD0408014010B50024B6
:1023C0001B48006820F470401949086008460068FE
:1023D00040F4004008600122C9141548001FFEF7B0
:1023E0008BFD012000F038FF012211031048001F6F
:1023F000FEF782FD012000F02FFF07E0601CC4B251
:10240000FA2C03DDFFF7ACFF012010BD4FF4006193
:102410000748001FFEF768FD0028EFD100224FF4A7
:1024200080510348001FFEF767FD0020EDE7000024
:1024300004080140704710B5FEF76AFDFFF710FA77
:1024400010BD000010B590B00220069001200A9047
:1024500010200B9002200D9000210E914FF4C0111E
:102460000F9106A8FEF790FF18B1EE2113A000F01F
:102470006BFA0F200190022002900020039004903C
:102480000590012101A8FEF73DFE18B1FC210BA02B
:1024900000F05AFAFEF708FF4FF47A71B0FBF1F43E
:1024A0002046FFF7C3F90420FFF78EF900221146FA
:1024B000501EFEF7D4FD10B010BD00002E2E2F537D
:1024C00072632F6D61696E2E630000001148006811
:1024D00040F001000F490860084640680E49084076
:1024E0000C494860084600680C49084009490860E2
:1024F0000846006820F4802008600846406820F400
:10250000FE0048604FF41F008860C803044908605B
:1025100070470000001002400000FFF8FFFFF6FEC9
:1025200008ED00E010B586B000BF2348806940F098
:102530000800214988610846806900F00800019080
:1025400000BF00BF029840F070000290012003908D
:1025500004900320059002A91848FEF737FB0122DA
:1025600010211648FEF7C8FC012220211348FEF76F
:10257000C3FC012240211148FEF7BEFC8F2001F070
:10258000D1F9402001F0CEF9002240210B48FEF79E
:10259000B3FCC02000F014F8002404E0002000F098
:1025A0000FF8601CC4B2102CF8DB01224021034854
:1025B000FEF7A2FC06B010BD00100240000C014066
:1025C00070B5044600251AE0002220210D48FEF7D0
:1025D00093FC04F0010028B1012210210948FEF704
:1025E0008BFC04E0002210210648FEF785FC6410F5
:1025F000012220210348FEF77FFC681CC5B2082D8C
:10260000E2DB70BD000C014070B505466C6A00202D
:10261000E085E0842046FFF727F970BD0168C968AE
:1026200021F490710268D1600168496921F00101CB
:1026300002685161202180F83A10704710B50446B5
:102640002068C06820F040002168C860202084F81D
:1026500039002046FFF752FA002010BD70B504463D
:1026600094F83A0022284AD1A068B0F5805F13D1CF
:10267000A56A206940B920684068C0F30800288036
:10268000A06A801CA06219E020684068C0B228805F
:10269000A06A401CA06211E0206938B92068406837
:1026A000C1B2A26A501CA062117007E020684068A5
:1026B00000F07F01A26A501CA0621170E08D401EE4
:1026C00080B2E085C8B92068C06820F02000216889
:1026D000C8602068C06820F480702168C8602068E5
:1026E000406920F0010021684861202084F83A0008
:1026F0002046FFF7D5F9002070BD0020FCE702203E
:10270000FAE700002DE9F041044600252068006941
:1027100020F44050E1680843216808612169A068FD
:1027200008436169084305432068C06841F20C61B1
:10273000884328432168C8602068406920F44070BD
:10274000A1690843216848615F49206888425CD1DB
:10275000FEF7C0FD00EBC00101EB001061688900CD
:10276000B0FBF1F6FEF7B6FD00EBC00101EB001087
:1027700061688900B0FBF1F06421B0FBF1F000EB7F
:10278000C00101EB0010A6EB8000322101EB00102C
:102790006421B0FBF1F000F0F006FEF79BFD00EBCA
:1027A000C00101EB001061688900B0FBF1F0642109
:1027B000B0FBF1F006EB0016FEF78CFD00EBC0015C
:1027C00001EB001061688900B0FBF1F7FEF782FDB4
:1027D00000EBC00101EB001061688900B0FBF1F073
:1027E0006421B0FBF1F000EBC00101EB0010A7EB9E
:1027F0008000322101EB00106421B0FBF1F000F009
:102800000F003044216888605BE0FEF753FD00EB69
:10281000C00101EB001061688900B0FBF1F6FEF722
:1028200049FD00EBC00101EB001061688900B0FBBD
:10283000F1F06421B0FBF1F000EBC00101EB0010FE
:10284000A6EB8000322101EB00106421B0FBF1F017
:1028500000F0F006FEF72EFD00EBC00101EB0010CA
:1028600061688900B0FBF1F06421B0FBF1F006EB88
:102870000016FEF71FFD00EBC00101EB00106168C0
:102880008900B0FBF1F7FEF715FD00EBC00101EB8D
:10289000001061688900B0FBF1F06421B0FBF1F039
:1028A00000EBC00101EB0010A7EB8000322101EB2F
:1028B00000106421B0FBF1F000F00F0030442168FB
:1028C0008860BDE8F081000000380140014691F8C1
:1028D000390021282CD18868B0F5805F0FD10A6AB1
:1028E0001088C0F308000B685860086918B9086AB6
:1028F000801C086209E0086A401C086205E00B6A57
:10290000581C086218780B685860C88C401E80B24A
:10291000C88458B90868C06820F080000B68D86087
:102920000868C06840F040000B68D860002070471D
:102930000220FCE710B50248FEF798FF10BD00002A
:10294000C000002000BFFEE700BFFEE70FB4054B4C
:1029500010B503A9044A029800F0D0F810BC5DF845
:1029600014FB000051330008B0000020EFF310808A
:10297000704702E008C8121F08C1002AFAD1704748
:102980007047002001E001C1121F002AFBD17047EF
:1029900080F31088704700002DE9FF5FDDE9022019
:1029A000010DDDF838B0024318D044F61050A1F202
:1029B000FF3141430D140F98012820D0A5EB0B00E7
:1029C000401C5FEA000A4FF00004474EDFF81C91FC
:1029D000A046504616D5CAF1000728E00F980124FA
:1029E00043A2012808D0002100980F9BC0E90021D4
:1029F000C0E90243BDE8FF9F6FEA0B01F4E7CBF1AA
:102A00000000DEE7074612E0F80707D0224633460B
:102A100040464946FDF73DFC8046894622463346FE
:102A200010461946FDF735FC04460E467F10002F70
:102A3000EAD1DDE90201BAF1000F42464B4602DA63
:102A4000FDF727FC01E0FDF796FC04460E46002248
:102A5000284BFDF791FE03D84FF0FF30014607E009
:102A60000022254B20463146FDF76CFBFDF76BFE3F
:102A7000102409E0002C0ADB0A220023FDF77DFD6B
:102A8000019B30321A55641E50EA0102F2D1641CD7
:102A9000019AC4F1110314440F9A012A03D00122B0
:102AA00008430DD10AE0084304D000204FF0110B79
:102AB0000F9080E7A3EB0B056D1E0DE05B4504DD79
:102AC0004FF0000205F1010504E003DA4FF00002C7
:102AD000A5F10105002AECD000980F99C0E9023158
:102AE000C0E9004586E70000000024400000F03FF8
:102AF000300000000000F0430000E03F2DE9FF4FF0
:102B000095B09B468946064600250FE2252877D1D9
:102B100000242746F84A0121059400E0044316F8F2
:102B2000013F203B01FA03F01042F7D130782A2808
:102B300011D06FF02F033078A0F13002092A16D897
:102B4000059A44F0020402EB820203EB42021044B5
:102B5000761C0590EFE759F8042B0592002A03DA5A
:102B6000504244F40054059044F00204761C30783E
:102B70002E2816D116F8010F44F004042A280DD08F
:102B80006FF02F023078A0F13003092B09D807EB42
:102B9000870302EB4303C718761CF3E759F8047B5D
:102BA000761C30786C280FD006DC4C2817D06828AB
:102BB0000DD06A2814D104E0742810D07A280FD1DF
:102BC0000DE044F400140AE044F4801401E044F4FD
:102BD00040147278824202D104F58014761C761C6F
:102BE000307866280BD013DC582877D009DC002811
:102BF00075D04528F6D04628F4D047281AD19DE153
:102C000018E0632835D0642879D0652812D195E181
:102C1000702873D008DC6728F1D069286FD06E283F
:102C20000DD06F2806D1B5E073282CD0752875D04B
:102C3000782874D05A46179990476D1C75E1C4F3F3
:102C40000250022809D003280DD0D9F8001004281A
:102C50000DD00D6009F1040967E1D9F80010EA17F9
:102C6000C1E90052F6E7D9F800100D80F2E70D70C7
:102C7000F0E719F8041B8DF8001000208DF8010012
:102C8000EA46012003E059F804AB4FF0FF3061073A
:102C90004FF0000102D40DE008F101018846B9426D
:102CA0000FDA8045F8DB1AF808100029F4D108E0A3
:102CB00008F1010188468142FADB1AF80810002960
:102CC000F6D105985B46A0EB080721463846179ACF
:102CD00000F094FA284400EB080507E04DE029E1F4
:102CE0000DE01AF8010B5A4617999047B8F1010800
:102CF000F7D25B4621463846179A13E142E00A2292
:102D00000092C4F302524FF0000A022A08D059F888
:102D100004CB032A4FEAEC710AD00DE029E02AE047
:102D200009F1070121F00702F2E802C1914609E02A
:102D30000FFA8CFC4FEAEC71042A03D14FFA8CFC99
:102D40004FEAEC71002907DA0A460021DCF1000C99
:102D500061EB02012D2202E0220504D52B228DF821
:102D60000420012203E0E20701D02022F7E7904689
:102D700059E00A2102E010220DE010214FF0000A74
:102D800000910BE010224FF0000A44F004040827E1
:102D9000009203E008224FF0000A0092C4F30252AE
:102DA000022A05D059F804CB0021032A08D009E0F3
:102DB00009F1070121F00702F2E802C1914605E09E
:102DC0001FFA8CFC042A01D10CF0FF0C4FF0000814
:102DD000220728D5702806D0009B83F0100353EA01
:102DE0000A0305D00EE040228DF80420012208E0FD
:102DF0005CEA010206D030228DF804208DF805002F
:102E000002229046009B83F0080353EA0A030AD18A
:102E10005CEA010201D1620705D530228DF8042059
:102E20004FF001087F1E582804D034A003900EA84C
:102E300002900DE036A0F9E753466046009AFDF790
:102E40009CFB84460398825C0298401E02900270AC
:102E50005CEA0100F0D1029806A9081A00F1200AE4
:102E6000600702D524F4803400E00127574502DDD5
:102E7000A7EB0A0000E0002000EB0A010090059893
:102E80004144401A0590E00306D45B462146179A58
:102E9000059800F0B3F90544002706E001A85A465A
:102EA000C05D179990476D1C7F1C4745F6DBE0031A
:102EB0000CD55B462146179A059800F09FF905440A
:102EC00004E030205A46179990476D1C0099481E1F
:102ED00000900029F5DC08E0029802995A46007833
:102EE000491C0291179990476D1CBAF10001AAF193
:102EF000010AF1DC65E100000928010030313233BC
:102F00003435363738396162636465660000000025
:102F1000303132333435363738394142434445460F
:102F20000000000000F058F90544761C30780028B5
:102F30007FF4ECAD19B02846BDE8F08F620700D4ED
:102F4000062709F1070222F0070CFCE80223E146FC
:102F500003F000485FEA080C02D00FF2702C0DE07D
:102F60005FEA045C02D50FF2682C07E05FEAC47CDC
:102F700002D00FF2602C01E0AFF2700C4FF0FF387E
:102F800023F00043CDF850C065280CD006DC45285E
:102F900009D046281DD047283DD13DE0662818D0ED
:102FA00067287ED138E00021112F01DB112000E0DD
:102FB000781CCDE9000106A90EA8FFF7EDFCDDE9BC
:102FC0000F010E9A03910021009207F1010A04916A
:102FD0004DE04FF000400097CDE9011006A90EA882
:102FE000FFF7DAFCDDE90F0203920E9B1199002234
:102FF000DDF80CA00093049211B9791C00EB010AD2
:10300000B7EB0A0004D4C0F1FF3007F1010A0490C5
:10301000AAEB0700019044E0012F00DA012700210C
:10302000112F01DD112000E03846CDE9000106A98D
:103030000EA8FFF7B1FCDDE90F010E9A0391002104
:1030400004910092BA4621070CD40399514500DA45
:103050008A46BAF1010F05DD009AAAF10101515C1F
:10306000302908D0B84202DA10F1040F06DA012143
:10307000CDE9011015E0AAF10101E9E7002805DC1E
:10308000049901440491AAEB000102E0411C51455E
:1030900000DD8A460499401A401C01904FF0004020
:1030A0000290200704D40198504501DBCDF804803C
:1030B00000208DF84F0002980DF14F07B0F1004F3E
:1030C00025D02B200E9002984FF0020800280CDA31
:1030D000404202902D200E9007E00A210298FDF751
:1030E00036FA3031029007F8011DB8F10001A8F15D
:1030F0000108F2DC02980028EFD1791E0E980870C2
:10310000307800F0200040F0450007F8020D12A8CA
:10311000C01B00F107081498007800B1012000EBF3
:103120000A01019801EBE07105984144401A401EE4
:103130000590E00306D45B462146179A059800F0F7
:103140005DF805441498007818B15A4617999047CD
:103150006D1CE00324D55B462146179A059800F0C4
:103160004DF805441CE00498002807DBDDE9030165
:10317000884203DD0098405C179901E017993020E0
:103180005A469047049805F10105401C04900198A7
:10319000401E019004D12E205A46179990476D1C6D
:1031A000BAF10001AAF1010ADDDC05E017F8010B14
:1031B0005A46179990476D1CB8F10001A8F1010813
:1031C000F4DC5B462146179A0598ABE62D0000001B
:1031D0002B000000200000002DE9F04104460025EE
:1031E0001E461746880404D405E039462020B0471F
:1031F0006D1C641EF9D52846BDE8F0812DE9F0412B
:10320000044600251E469046C80301D5302700E03D
:103210002027880404D505E041463846B0476D1C98
:10322000641EF9D52846BDE8F081002105E00022A2
:1032300000E0521C642AFCD3491C8142F7D370473A
:10324000002106E0002200E0521CB2F57A7FFBD399
:10325000491C8142F6D37047002105E0002200E0BE
:10326000521C642AFCD3491C8142F7D370470000EA
:103270002DE9F04F87B006460F4600240020059048
:1032800006908046814682468346049003900290D1
:10329000019000BF30E0072524E005A8005D40064E
:1032A000000E05A90855032D0FD177B1705D274990
:1032B000085C40F08000204100F0010088B105A8C2
:1032C000005D401C05A908550BE0705D1F49085CB6
:1032D000204100F0010020B105A8005D401C05A9B7
:1032E00008556D1E002DD8DA05AA115D6206100E74
:1032F00000F02AFB601CC4B2082CCCDB002420E0C8
:10330000072513E005A8005D4006000E05A9085535
:103310007019007A0D49085C204100F0010020B1CD
:1033200005A8005D401C05A908556D1E002DE9DAB1
:1033300005AA115D6200521CD0B200F005FB601CB2
:10334000C4B2082CDCDB07B0BDE8F08F60000020C1
:1033500013B50C46012269460648FEF7A2FB00BFE2
:10336000054800780128FBD1002003490870009827
:103370001CBD0000C0000020000000208EB0FDF742
:10338000D3FDFFF75FF8FEF7C1FBFEF7F9FBFEF791
:10339000DBFEFEF765FCFEF749FEFDF745FA01206E
:1033A00000F0DAF9FFF7BEF820200D9073A00D9918
:1033B000FFF7CCFA75A00D99FFF7C8FADDE041F2EE
:1033C0008830FFF73DFF7649764800F06BF9002220
:1033D000754B744903C9FCF75CFF0546FDF750F8CF
:1033E0000446214671A0FFF7B1FA7548FEF7AEFD1D
:1033F000744880790A2190FBF1F201FB12047148B4
:10340000807990FBF1F56F48407990FBF1F201FB78
:1034100012066C48407990FBF1F76A48007990FBFE
:10342000F1F201FB12086748007990FBF1F9654859
:10343000C07890FBF1F201FB120A6248C07890FB61
:10344000F1FB6048807890FBF1F201FB12000C90D8
:103450005C48807890FBF1F00B905A48407890FBE4
:10346000F1F201FB12000A905648407890FBF1F00F
:10347000CDE901BACDE90398CDE90576CDE9075448
:1034800009900C98009050A009A90EC9FFF75EFAA8
:10349000012000F061F9102000F05EF94FF4FA709D
:1034A000FFF7CEFE00F0A4F8464800790A2190FB11
:1034B000F1F04E490870434800790A2190FBF1F27F
:1034C00001FB1200494948703E4840790A2190FBAF
:1034D000F1F0464988703B4840790A2190FBF1F2AF
:1034E00001FB12004149C87000222F4B2D4903C92E
:1034F000FCF7CFFE0446FCF7E2FF80B2642190FBAC
:10350000F1F03A4908710022274B264903C9FCF71C
:10351000C0FE0446FCF7D3FF80B2642190FBF1F2B9
:1035200001FB12000A2190FBF1F0304948710022A2
:103530001D4B1C4903C9FCF7ACFE0446FCF7BFFF5A
:1035400080B20A2190FBF1F201FB12002749887139
:103550000720C8710820087209204872194880792C
:103560000A2190FBF1F201FB120000F00104214658
:103570001E48FFF77DFE00F083F920E748656C6C7C
:103580006F2053544D2564210D0A000048656C6C72
:103590006F2053544D256446313033210D0A00000D
:1035A00010000020080000200000244074656D70A9
:1035B00065726174757265203D2025640D0A0000F6
:1035C0001800002020000020256425642D25642596
:1035D000642D256425642020256425643A2564250E
:1035E000643A25642564200D0A000000B400002020
:1035F0002DE9F047FDF7F4F94720FDF7ADF9FDF7A8
:103600004DFA0120FDF76CF9194908700020FDF70B
:1036100067F917494870FDF713FA4FF47A70FFF70E
:1036200004FE13480078134908601148407809687F
:1036300000EB01200F49086008460068FCF70AFF0C
:103640008146FCF755FF07464FF033320A4BFCF733
:1036500092FE0546FCF75FFF04462046FCF748FF54
:1036600005462A460B4605A0FFF770F9BDE8F0872E
:10367000580000205C0000203333F33F6C75784223
:10368000756666203D202531660D0A00002105E0A3
:10369000002200E0521C642AFCD3491C8142F7D36B
:1036A000704700002DE9F05F82464FF0000BFEF7F7
:1036B00027FE8020FEF7E0FDFEF780FEE320FEF708
:1036C000DBFDFEF77BFEFEF71BFE8120FEF7D4FD3F
:1036D000FEF774FE4FF4FA70FFF7BEFD0120FEF70F
:1036E0008FFD174948700020FEF78AFD14490870C5
:1036F000FEF736FE124800781149497840EA012B5E
:103700005846FCF7B0FE04460D4600220D4B2046FD
:103710002946FCF730FE80464FF080420A4BFCF70A
:10372000B8FD06464FF04042084BFCF7ACFD04469E
:103730000D46CAE9004506A0FFF708F9BDE8F09F6D
:10374000390000200000F0400AF76540CC6C47408B
:1037500074656D700000000010B50446FDF740F977
:103760004620FDF7F9F8FDF799F92046FDF7F4F842
:10377000FDF794F9FDF764F910BD000070B505463A
:103780003948006814286CD3374800681438364923
:10379000086000BF00BFFFF7E9F8044672B600BF3B
:1037A0003248006840F01000304908602046FFF7BA
:1037B000EFF800BF2E480078401CC0B22C490870BA
:1037C000052800DA70BD00202949087000BF00BF3D
:1037D000FFF7CCF8044672B600BF2448006840F0FA
:1037E0002000224908602046FFF7D2F800BF214898
:1037F0000078401CC0B21F4908700A2800DAE1E7CF
:1038000000201C49087000BF00BFFFF7AFF8044656
:1038100072B600BF1548006840F0400013490860C8
:103820002046FFF7B5F800BF13480078401CC0B22F
:10383000114908703C2800DAC4E700200E490870DE
:1038400000BF00BFFFF792F8044672B600BF0748FA
:10385000006840F08000054908602046FFF798F8AE
:1038600000BF00BFAEE70000700000207400002021
:10387000AE000020AC000020AD0000207047704773
:1038800070B5002527E005EB4500144901EB8004E5
:1038900021780120884012490968084018B96078E9
:1038A00000F00100A8B100BF00BFFFF75FF80646B7
:1038B00072B600BF21780120884009490968814318
:1038C000074801603046FFF763F800BFD4E9010103
:1038D0008847681CC5B2042DD5D370BD7C0000207C
:1038E0007400002010B5044608480068401C0749D1
:1038F00008600846006841F28831884205D90020F6
:103900000249086002A0FFF721F810BD78000020EE
:103910007461736B5F3130306D7320746573742123
:103920000D0A000010B50446002240210548FDF7AD
:10393000E3FA2046FEF744FE012240210148FDF74C
:10394000DBFA10BD000C014070B504460D46442062
:10395000FFF7E8FF002240210748FDF7CDFA44F0C9
:10396000C000FEF72DFE2846FEF72AFE0122402168
:103970000148FDF7C1FA70BD000C014000000000D5
:10398000000000000102030406070809000000000F
:1039900001020304B439000800000020B400000054
:1039A00072290008683A0008B40000204C040000A6
:1039B0008229000800000000000000000000000054
:1039C00000000000000000000000000000000000F7
:1039D00000000000000000000000000000000000E7
:1039E000100000000100000000A24A0400000000D6
:1039F00014110C1F173B32060000000000000000ED
:103A000000000000000000000000000000000000B6
:103A1000000000003F065B4F666D7D077F6F777C7F
:103A2000395E797100000000000000000000000015
:103A300003000000000000007D37000804000000C3
:103A4000000000007F3800080500000000000000B2
:103A50007D3800080600000000000000E53800087E
:083A600000000000000000005E
:04000005080000ED02
:00000001FF
